:100000000C945D000C9485000C9485000C94850084
:100010000C9485000C9485000C9485000C9485004C
:100020000C9485000C9485000C9485000C94B80306
:100030000C94A1030C94F9020C9485000C94850097
:100040000C94AF020C9485000C947D020C94570222
:100050000C9485000C9485000C9485000C9485000C
:100060000C9485000C94850000000008000201003B
:100070000003040700000000000000000000000072
:10008000250028002B0000000000240027002A0083
:10009000040404040404040402020202020203032E
:1000A0000303030301020408102040800102040836
:1000B00010200102040810201E0511241FBECFEFDE
:1000C000D8E0DEBFCDBF11E0A0E0B1E0E4EFFAE0A0
:1000D00002C005900D92A833B107D9F721E0A8E33B
:1000E000B1E001C01D92A13FB207E1F710E0CDE5FC
:1000F000D0E004C02197FE010E946D05CC35D107E8
:10010000C9F70E944D040C9478050C940000CF921E
:10011000DF92EF92FF920F931F93CF93DF936C01C7
:100120007A018B01C0E0D0E0CE15DF0589F0D8015F
:100130006D918D01D601ED91FC910190F081E02D42
:10014000C6010995892B11F47E0102C02196ECCFDE
:10015000C701DF91CF911F910F91FF90EF90DF903A
:10016000CF900895089580E090E00895FC01538DAC
:10017000448D252F30E0842F90E0821B930B541781
:1001800010F0CF96089501970895FC01918D828D0E
:10019000981761F0828DDF01A80FB11D5D968C91DB
:1001A000928D9F5F9F73928F90E008958FEF9FEFE6
:1001B0000895FC01918D828D981731F0828DE80FA2
:1001C000F11D858D90E008958FEF9FEF0895FC015C
:1001D000918D228D892F90E0805C9F4F821B910929
:1001E0008F739927089584E591E00E94E70021E04C
:1001F000892B09F420E0822F0895FC01848DDF0112
:10020000A80FB11DA35ABF4F2C91848D90E0019689
:100210008F739927848FA689B7892C93A089B18978
:100220008C9180648C93938D848D981306C0028882
:10023000F389E02D80818F7D80830895EF92FF9276
:100240000F931F93CF93DF93EC0181E0888F9B8DF9
:100250008C8D981305C0E889F989808185FD24C0BB
:10026000F62E0B8D10E00F5F1F4F0F731127E02E3E
:100270008C8DE8120CC00FB607FCFACFE889F9891B
:10028000808185FFF5CFCE010E94FD00F1CF8B8DDF
:10029000FE01E80FF11DE35AFF4FF0820B8FEA8950
:1002A000FB898081806207C0EE89FF896083E889CD
:1002B000F98980818064808381E090E0DF91CF9133
:1002C0001F910F91FF90EF900895CF93DF93EC0172
:1002D000888D8823C9F0EA89FB89808185FD05C066
:1002E000A889B9898C9186FD0FC00FB607FCF5CFA0
:1002F000808185FFF2CFA889B9898C9185FFEDCFE8
:10030000CE010E94FD00E7CFDF91CF91089580E0FC
:1003100090E0892B29F00E94F30081110C940000D9
:10032000089590E0FC01E859FF4F3491FC01EC5531
:10033000FF4F2491FC01E057FF4FE491EE2309F4B5
:100340003BC0332339F1333091F038F43130A9F028
:10035000323001F584B58F7D12C0373091F03830DE
:10036000A1F03430B9F4809180008F7D03C080917A
:1003700080008F77809380000DC084B58F7784BD17
:1003800009C08091B0008F7703C08091B0008F7D4D
:100390008093B000F0E0EE0FFF1FE458FF4FA591EF
:1003A000B4918FB7F894EC91611103C020952E237E
:1003B00001C02E2B2C938FBF08953FB7F8948091E6
:1003C0003D0190913E01A0913F01B091400126B5C1
:1003D000A89B05C02F3F19F00196A11DB11D3FBF7D
:1003E000BA2FA92F982F8827820F911DA11DB11D0B
:1003F000BC01CD0142E0660F771F881F991F4A9507
:10040000D1F70895009769F0FC0101900020E9F709
:100410003197AF01481B590BBC0184E591E00C9466
:10042000870080E090E008958F929F92AF92BF92F4
:100430000F931F93CF93DF93CDB7DEB7A1970FB67E
:10044000F894DEBF0FBECDBF19A2423008F44AE0D7
:100450008E010F5D1F4F842E912CA12CB12CA50174
:1004600094010E944B05E62FB901CA010150110900
:10047000EA3014F4E05D01C0E95CD801EC93232B71
:10048000242B252B61F7C8010E940202A1960FB60A
:10049000F894DEBF0FBECDBFDF91CF911F910F91BA
:1004A000BF90AF909F908F9008950E9473051F9208
:1004B0000F920FB60F9211242F933F934F935F9398
:1004C0006F937F938F939F93AF93BF93EF93FF931C
:1004D00084E591E00E94FD00FF91EF91BF91AF9103
:1004E0009F918F917F916F915F914F913F912F914C
:1004F0000F900FBE0F901F9018951F920F920FB67E
:100500000F9211242F938F939F93EF93FF93E0917A
:100510006401F09165018081E0916A01F0916B01C5
:1005200082FD12C0908180916D018F5F8F73209149
:100530006E01821751F0E0916D01F0E0EC5AFE4F30
:10054000958F80936D0101C08081FF91EF919F9104
:100550008F912F910F900FBE0F901F9018951F92A3
:100560000F920FB60F9211242F933F938F939F9367
:10057000AF93BF938091390190913A01A0913B01D3
:10058000B0913C013091380123E0230F2D3720F446
:100590000196A11DB11D05C026E8230F0296A11DDD
:1005A000B11D209338018093390190933A01A093B3
:1005B0003B01B0933C0180913D0190913E01A0919F
:1005C0003F01B09140010196A11DB11D80933D01F5
:1005D00090933E01A0933F01B0934001BF91AF9132
:1005E0009F918F913F912F910F900FBE0F901F9071
:1005F00018951F920F920FB60F921124CF92DF928F
:10060000EF92FF920F931F932F933F934F935F931C
:100610006F937F938F939F93AF93BF93CF93DF930A
:10062000EF93FF93809141019091420181309105B8
:10063000A9F082309105E9F0892B09F069C01BB857
:1006400015B88FE39DEE909385008093840081E040
:1006500090E090934201809341015AC08CEF8BB996
:1006600083E085B98FE79AED9093850080938400AD
:100670004FC08CEF8BB983E085B910928500109242
:1006800084000E94DD016B017C0184E591E00E9401
:10069000C5008C0184E591E00E94C5008F3F2FEFDB
:1006A000920709F108301105F0F4E801CC0FDD1FC5
:1006B000C050DF4F8095909599838883B801110FC2
:1006C000880B990B4AE00E941402888199818095D9
:1006D0009095BC0180E090E040E10E94140285E327
:1006E00091E00E9402020E94DD010D2C000CEE0838
:1006F000FF086C197D098E099F094AE00E941402C7
:1007000085E391E00E9402021092420110924101A1
:10071000FF91EF91DF91CF91BF91AF919F918F9119
:100720007F916F915F914F913F912F911F910F9109
:10073000FF90EF90DF90CF900F900FBE0F901F9023
:1007400018951F920F920FB60F9211248F939F93BB
:1007500080914101909142010197029710F41BB8DA
:1007600015B89F918F910F900FBE0F901F90189505
:100770001F920F920FB60F921124AF92BF92CF9299
:10078000DF92EF92FF920F931F932F933F934F931C
:100790005F936F937F938F939F93AF93BF93CF9309
:1007A000DF93EF93FF938091410190914201019774
:1007B00009F058C0809153018031E0F082E090E070
:1007C000909342018093410102E211E0C3E4D1E041
:1007D000FF24F394688161706F25F80181918F0186
:1007E0000E9491011992F1E0CB34DF0799F7109242
:1007F000530138C082E2E82E81E0F82EC0E0D1E05B
:1008000003E411E0CC24C394D12CC6010090530121
:1008100002C0880F991F0A94E2F768816823F701E4
:1008200081917F010E94910180915301A601082EC0
:1008300002C0440F551F0A94E2F72881398122969D
:100840002423352391E0232B09F490E0F801208143
:10085000920F91938F01F1E0C031DF07B1F68F5F06
:1008600080935301FF91EF91DF91CF91BF91AF91B1
:100870009F918F917F916F915F914F913F912F91B8
:100880001F910F91FF90EF90DF90CF90BF90AF90AE
:100890000F900FBE0F901F901895789484B58260CA
:1008A00084BD84B5816084BD85B5826085BD85B514
:1008B000816085BD80916E00816080936E00109292
:1008C000810080918100826080938100809181000D
:1008D000816080938100809180008160809380009E
:1008E0008091B10084608093B1008091B0008160FC
:1008F0008093B00080917A00846080937A00809128
:100900007A00826080937A0080917A00816080937F
:100910007A0080917A00806880937A001092C100FA
:10092000F89410928000109281001092850010922D
:100930008400809181008861809381008091810092
:100940008160809381008FED93EE90938900809376
:1009500088008FE39DEE90938B0080938A008091B6
:100960006F00876080936F007894E0916401F0914C
:10097000650182E08083E0916001F0916101108265
:10098000E0916201F09163018FEC808310926C0121
:10099000E0916801F091690186E08083E091660151
:1009A000F0916701808180618083E0916601F09120
:1009B0006701808188608083E0916601F091670122
:1009C000808180688083E0916601F0916701808179
:1009D0008F7D8083A2E2B1E08D9190E0FC01EC5527
:1009E000FF4F2491FC01E057FF4F8491882399F039
:1009F00090E0880F991FFC01EA57FF4FC591D491F1
:100A0000FC01E458FF4F859194918FB7F894E881E9
:100A1000E22BE8838FBF81E0AA32B807E9F68CEFBA
:100A20008BB983E085B910924201109241018AE2AC
:100A300091E00E9402020E948701FDCFE4E5F1E00F
:100A40001382128288EE93E0A0E0B0E08483958365
:100A5000A683B78384E191E09183808385EC90E065
:100A60009587848784EC90E09787868780EC90E078
:100A7000918B808B81EC90E0938B828B82EC90E069
:100A8000958B848B86EC90E0978B868B118E128EE3
:100A9000138E148E0895A1E21A2EAA1BBB1BFD0112
:100AA0000DC0AA1FBB1FEE1FFF1FA217B307E4074D
:100AB000F50720F0A21BB30BE40BF50B661F771FA5
:100AC000881F991F1A9469F7609570958095909585
:100AD0009B01AC01BD01CF010895EE0FFF1F0590F2
:100AE000F491E02D099481E090E0F8940C9478055D
:040AF000F894FFCFA8
:100AF400FFFF0000000000000000000000000000F4
:100B0400000000001E018700B6006501E700C50073
:100B1400D9000203040506070809506F7274206F98
:080B240070656E0A000D0A0065
:00000001FF
