:100000000C945D000C9485000C9485000C94850084
:100010000C9485000C9485000C9485000C9485004C
:100020000C9485000C9485000C9485000C94E303DB
:100030000C94B6030C9424030C9485000C94850056
:100040000C94DA020C9485000C94A8020C948202A1
:100050000C9485000C9485000C9485000C9485000C
:100060000C9485000C94850000000008000201003B
:100070000003040700000000000000000000000072
:10008000250028002B0000000000240027002A0083
:10009000040404040404040402020202020203032E
:1000A0000303030301020408102040800102040836
:1000B0001020010204081020780411241FBECFEF85
:1000C000D8E0DEBFCDBF22E0ACE5B1E001C01D92BB
:1000D000A536B207E1F711E0A0E0B1E0E4E8FEE008
:1000E00002C005900D92AC35B107D9F710E0CDE50F
:1000F000D0E004C02197FE010E943507CC35D1071E
:10010000C9F70E94B7040C9440070C940000CF92EA
:10011000DF92EF92FF920F931F93CF93DF936C01C7
:100120007A018B01C0E0D0E0CE15DF0589F0D8015F
:100130006D918D01D601ED91FC910190F081E02D42
:10014000C6010995892B11F47E0102C02196ECCFDE
:10015000C701DF91CF911F910F91FF90EF90DF903A
:10016000CF900895089580E090E00895FC01538DAC
:10017000448D252F30E0842F90E0821B930B541781
:1001800010F0CF96089501970895FC01918D828D0E
:10019000981761F0828DDF01A80FB11D5D968C91DB
:1001A000928D9F5F9F73928F90E008958FEF9FEFE6
:1001B0000895FC01918D828D981731F0828DE80FA2
:1001C000F11D858D90E008958FEF9FEF0895FC015C
:1001D000918D228D892F90E0805C9F4F821B910929
:1001E0008F739927089580E891E00E94E70021E04D
:1001F000892B09F420E0822F0895FC01848DDF0112
:10020000A80FB11DA35ABF4F2C91848D90E0019689
:100210008F739927848FA689B7892C93A089B18978
:100220008C9180648C93938D848D981306C0028882
:10023000F389E02D80818F7D80830895EF92FF9276
:100240000F931F93CF93DF93EC0181E0888F9B8DF9
:100250008C8D981305C0E889F989808185FD24C0BB
:10026000F62E0B8D10E00F5F1F4F0F731127E02E3E
:100270008C8DE8120CC00FB607FCFACFE889F9891B
:10028000808185FFF5CFCE010E94FD00F1CF8B8DDF
:10029000FE01E80FF11DE35AFF4FF0820B8FEA8950
:1002A000FB898081806207C0EE89FF896083E889CD
:1002B000F98980818064808381E090E0DF91CF9133
:1002C0001F910F91FF90EF900895CF93DF93EC0172
:1002D000888D8823C9F0EA89FB89808185FD05C066
:1002E000A889B9898C9186FD0FC00FB607FCF5CFA0
:1002F000808185FFF2CFA889B9898C9185FFEDCFE8
:10030000CE010E94FD00E7CFDF91CF91089580E0FC
:1003100090E0892B29F00E94F30081110C940000D9
:10032000089590E0FC01E859FF4F3491FC01EC5531
:10033000FF4F2491FC01E057FF4FE491EE2309F4B5
:100340003BC0332339F1333091F038F43130A9F028
:10035000323001F584B58F7D12C0373091F03830DE
:10036000A1F03430B9F4809180008F7D03C080917A
:1003700080008F77809380000DC084B58F7784BD17
:1003800009C08091B0008F7703C08091B0008F7D4D
:100390008093B000F0E0EE0FFF1FE458FF4FA591EF
:1003A000B4918FB7F894EC91611103C020952E237E
:1003B00001C02E2B2C938FBF08951F93CF93DF93F3
:1003C000182FC0E1D1E0612F89910E94910181E055
:1003D000C831D807C1F7DF91CF911F9108952FB78A
:1003E000F894609161017091620180916301909134
:1003F00064012FBF08958F929F92AF92BF92CF92C8
:10040000DF92EF92FF926B017C010E94EF014B01A2
:100410005C01C60ED71EE81EF91E0E94EF0168158A
:1004200079058A059B0528F0C616D706E806F90661
:10043000A0F7FF90EF90DF90CF90BF90AF909F908C
:100440008F9008950E943B076115710579F0FB01BB
:1004500001900020E9F73197AF01461B570BDC01F3
:10046000ED91FC910280F381E02D099480E090E011
:1004700008954F925F926F927F92EF92FF920F9347
:100480001F93CF93DF93CDB7DEB7A1970FB6F89444
:10049000DEBF0FBECDBF7C01FA01CB0119A2223015
:1004A00008F42AE08E010F5D1F4F422E512C612C63
:1004B000712CBF01A30192010E941307F901CA0127
:1004C000015011096A3014F4605D01C0695CD80103
:1004D0006C93232B242B252B61F7B801C7010E94B5
:1004E0002402A1960FB6F894DEBF0FBECDBFDF91F8
:1004F000CF911F910F91FF90EF907F906F905F9041
:100500004F9008951F920F920FB60F9211242F93C0
:100510003F934F935F936F937F938F939F93AF938B
:10052000BF93EF93FF9380E891E00E94FD00FF915D
:10053000EF91BF91AF919F918F917F916F915F915B
:100540004F913F912F910F900FBE0F901F901895D4
:100550001F920F920FB60F9211242F938F939F9398
:10056000EF93FF93E0919001F09191018081E091F0
:100570009601F091970182FD12C0908180919901BE
:100580008F5F8F7320919A01821751F0E09199014A
:10059000F0E0E058FE4F958F8093990101C0808173
:1005A000FF91EF919F918F912F910F900FBE0F9020
:1005B0001F9018951F920F920FB60F9211242F9330
:1005C0003F938F939F93AF93BF93809161019091DD
:1005D0006201A0916301B09164013091600123E058
:1005E000230F2D3720F40196A11DB11D05C026E86B
:1005F000230F0296A11DB11D20936001809361011C
:1006000090936201A0936301B093640180915C01B7
:1006100090915D01A0915E01B0915F010196A11DD5
:10062000B11D80935C0190935D01A0935E01B09336
:100630005F01BF91AF919F918F913F912F910F904B
:100640000FBE0F901F9018951F920F920FB60F922A
:1006500011240F931F932F933F934F935F936F93A7
:100660007F938F939F93AF93BF93CF93DF93EF933A
:10067000FF93809165019091660181309105B9F0F9
:1006800082309105F9F0892B09F05BC080E090E0A1
:100690000E94DD018FE39DEE90938500809384009E
:1006A00081E090E090936601809365014AC081E00B
:1006B00090E00E94DD018FE79AED90938500809392
:1006C00084003FC081E090E00E94DD01109285002F
:1006D0001092840080E891E00E94C5008C0180E8BF
:1006E00091E00E94C5008F3F2FEF920731F1083053
:1006F000110518F5E801CC0FDD1FC050DF4F8095C4
:10070000909599838883A801110F660B770B2AE0D7
:1007100080E891E00E9439024881598140955095C6
:1007200060E070E020E180E891E00E94390269E336
:1007300071E080E891E00E9424021092660110921C
:100740006501FF91EF91DF91CF91BF91AF919F91A3
:100750008F917F916F915F914F913F912F911F9159
:100760000F910F900FBE0F901F9018951F920F9230
:100770000FB60F9211242F933F934F935F936F9374
:100780007F938F939F93AF93BF93EF93FF9380914A
:100790006501909166010197029720F480E090E056
:1007A0000E94DD01FF91EF91BF91AF919F918F91D9
:1007B0007F916F915F914F913F912F910F900FBE5D
:1007C0000F901F9018951F920F920FB60F92112441
:1007D000AF92BF92CF92DF92EF92FF920F931F934F
:1007E0002F933F934F935F936F937F938F939F9339
:1007F000AF93BF93CF93DF93EF93FF938091650106
:1008000090916601019709F058C080917F01803175
:10081000E0F082E090E0909366018093650100E152
:1008200011E0CFE6D1E0FF24F394688161706F2579
:10083000F80181918F010E9491011992F1E0C7376F
:10084000DF0799F710927F0138C080E1E82E81E040
:10085000F82EC0E0D1E00FE611E0CC24C394D12CF7
:10086000C60100907F0102C0880F991F0A94E2F729
:1008700068816823F70181917F010E949101809135
:100880007F01A601082E02C0440F551F0A94E2F70B
:100890002881398122962423352391E0232B09F4E2
:1008A00090E0F8012081920F91938F01F1E0C03127
:1008B000DF07B1F68F5F80937F01FF91EF91DF91AA
:1008C000CF91BF91AF919F918F917F916F915F91E8
:1008D0004F913F912F911F910F91FF90EF90DF90DB
:1008E000CF90BF90AF900F900FBE0F901F901895B4
:1008F000E0E8F1E01382128288EE93E0A0E0B0E03D
:1009000084839583A683B7838CE191E09183808370
:1009100085EC90E09587848784EC90E097878687C4
:1009200080EC90E0918B808B81EC90E0938B828BBC
:1009300082EC90E0958B848B86EC90E0978B868B95
:10094000118E128E138E148EEDE1F2E01682178254
:1009500010861186128613861486158616861786CB
:10096000108A118A128A138A148A158A0895789433
:1009700084B5826084BD84B5816084BD85B58260A4
:1009800085BD85B5816085BD80916E008160809355
:100990006E001092810080918100826080938100BE
:1009A00080918100816080938100809180008160CE
:1009B000809380008091B10084608093B100809129
:1009C000B00081608093B00080917A008460809351
:1009D0007A0080917A00826080937A0080917A0018
:1009E000816080937A0080917A00806880937A0099
:1009F0001092C10010926102109262021092630282
:100A00001092640210921F02109220021092210292
:100A10001092220268EB7BE080E090E00E94FB01F4
:100A200080E891E09093600280935F02E0919001F2
:100A3000F0919101D2E0D083E0918C01F0918D0191
:100A40001082E0918E01F0918F0180E180831092FD
:100A50009801E0919401F0919501C6E0C083E09186
:100A60009201F0919301808180618083E0919201F5
:100A7000F0919301808188608083E0919201F091F0
:100A80009301808180688083E0919201F0919301CD
:100A900080818F7D80830E94EF0160931F0270939D
:100AA000200280932102909322026AE271E08091F9
:100AB0005F02909160020E9424026AE070E080E090
:100AC00090E00E94FB0181E080933302F894109241
:100AD0008000109281001092850010928400809115
:100AE0008100886180938100809181008160809382
:100AF00081008FED93EE90938900809388008FE3BF
:100B00009DEE90938B0080938A0080916F008760A8
:100B100080936F007894E0919001F0919101D083DF
:100B2000E0918C01F0918D011082E0918E01F091A5
:100B30008F018FEC808310929801E0919401F091E5
:100B40009501C083E0919201F091930180818061D1
:100B50008083E0919201F09193018081886080838D
:100B6000E0919201F0919301808180688083E0910F
:100B70009201F091930180818F7D8083A0E1B1E0AB
:100B80008D9190E0FC01EC55FF4F2491FC01E05762
:100B9000FF4F8491882399F090E0880F991FFC0102
:100BA000EA57FF4FC591D491FC01E458FF4F85915E
:100BB00094918FB7F894E881E22BE8838FBF21E00E
:100BC000A831B207E9F681E090E00E94DD011092C1
:100BD0006601109265016CE371E080E891E00E948B
:100BE000240284EF882E99249394A12CB12C0E9486
:100BF000EF01672B682B692B41F40E94EF016230F3
:100C000071058105910508F40BC10E94EF01609305
:100C10006B0170936C0180936D0190936E01C09095
:100C20006701D0906801E0906901F0906A016C154D
:100C30007D058E059F0540F4609367017093680100
:100C40008093690190936A01C0906701D090680118
:100C5000E0906901F0906A019B01AC012C193D09FB
:100C60004E095F0969017A013AEFC316D104E10424
:100C7000F10408F4D5C06093670170936801809314
:100C8000690190936A0180922B0290922C02A092AB
:100C90002D02B0922E0210922F021092300210926A
:100CA0003102109232028091230290912402A0918D
:100CB0002502B09126028093270290932802A093E8
:100CC0002902B0932A020E94EF01609323027093DD
:100CD000240280932502909326020E94EF016093E4
:100CE0001F027093200280932102909322020E949F
:100CF000EF016B017C0167E471E080915F029091EC
:100D000060020E9424022AE041E050E060E070E0CE
:100D100080915F02909160020E9439026EE471E05E
:100D200080915F02909160020E9424022AE0B70144
:100D3000A60180915F02909160020E94390260E5F5
:100D400071E080915F02909160020E942402809184
:100D5000230290912402A0912502B0912602B701AE
:100D6000A601481B590B6A0B7B0B2AE080915F029E
:100D7000909160020E94390260E571E080915F020B
:100D8000909160020E94240240912302509124021B
:100D9000609125027091260280912702909128028D
:100DA000A0912902B0912A02481B590B6A0B7B0BB8
:100DB0002AE080915F02909160020E94390262E510
:100DC00071E080915F02909160020E9424020E9473
:100DD000EF01AB01BC012AE080915F0290916002BB
:100DE0000E943902E0905F02F090600264E571E0D9
:100DF000C7010E94240269E371E0C7010E94240236
:100E000065E070E080E090E00E94FB010E94EF014D
:100E1000609323027093240280932502909326020C
:100E20000E948701E4CEA1E21A2EAA1BBB1BFD0182
:100E30000DC0AA1FBB1FEE1FFF1FA217B307E407B9
:100E4000F50720F0A21BB30BE40BF50B661F771F11
:100E5000881F991F1A9469F76095709580959095F1
:100E60009B01AC01BD01CF010895EE0FFF1F05905E
:100E7000F491E02D099481E090E0F8940C944007FF
:040E8000F894FFCF14
:100E8400FFFF000000000000000000000000000060
:100E94000203040506070809000000001E0187007C
:100EA400B6006501E700C500D900564D4450565FB1
:100EB400317C315F564D4450560D0A00506F7274A8
:100EC400206F70656E0A00564D4450455F003A32FB
:0C0ED4003A007C005F564D445045000081
:00000001FF
